{
  "contractName": "CitexToken",
  "abi": [
    {
      "constant": true,
      "inputs": [],
      "name": "name",
      "outputs": [
        {
          "name": "",
          "type": "string"
        }
      ],
      "payable": false,
      "stateMutability": "view",
      "type": "function"
    },
    {
      "constant": true,
      "inputs": [],
      "name": "decimals",
      "outputs": [
        {
          "name": "",
          "type": "uint8"
        }
      ],
      "payable": false,
      "stateMutability": "view",
      "type": "function"
    },
    {
      "constant": false,
      "inputs": [],
      "name": "claimOwnership",
      "outputs": [],
      "payable": false,
      "stateMutability": "nonpayable",
      "type": "function"
    },
    {
      "constant": false,
      "inputs": [
        {
          "name": "_spender",
          "type": "address"
        },
        {
          "name": "_subtractedValue",
          "type": "uint256"
        }
      ],
      "name": "decreaseApproval",
      "outputs": [
        {
          "name": "",
          "type": "bool"
        }
      ],
      "payable": false,
      "stateMutability": "nonpayable",
      "type": "function"
    },
    {
      "constant": true,
      "inputs": [
        {
          "name": "",
          "type": "uint256"
        }
      ],
      "name": "emails",
      "outputs": [
        {
          "name": "",
          "type": "string"
        }
      ],
      "payable": false,
      "stateMutability": "view",
      "type": "function"
    },
    {
      "constant": true,
      "inputs": [],
      "name": "restricted",
      "outputs": [
        {
          "name": "",
          "type": "bool"
        }
      ],
      "payable": false,
      "stateMutability": "view",
      "type": "function"
    },
    {
      "constant": true,
      "inputs": [
        {
          "name": "_owner",
          "type": "address"
        }
      ],
      "name": "balanceOf",
      "outputs": [
        {
          "name": "",
          "type": "uint256"
        }
      ],
      "payable": false,
      "stateMutability": "view",
      "type": "function"
    },
    {
      "constant": true,
      "inputs": [
        {
          "name": "_emailHash",
          "type": "string"
        }
      ],
      "name": "getUserInfo",
      "outputs": [
        {
          "name": "",
          "type": "uint256"
        }
      ],
      "payable": false,
      "stateMutability": "view",
      "type": "function"
    },
    {
      "constant": true,
      "inputs": [],
      "name": "owner",
      "outputs": [
        {
          "name": "",
          "type": "address"
        }
      ],
      "payable": false,
      "stateMutability": "view",
      "type": "function"
    },
    {
      "constant": true,
      "inputs": [],
      "name": "symbol",
      "outputs": [
        {
          "name": "",
          "type": "string"
        }
      ],
      "payable": false,
      "stateMutability": "view",
      "type": "function"
    },
    {
      "constant": false,
      "inputs": [
        {
          "name": "_emailHash",
          "type": "string"
        },
        {
          "name": "_balance",
          "type": "uint256"
        }
      ],
      "name": "setUserInfo",
      "outputs": [
        {
          "name": "",
          "type": "bool"
        }
      ],
      "payable": false,
      "stateMutability": "nonpayable",
      "type": "function"
    },
    {
      "constant": false,
      "inputs": [
        {
          "name": "_spender",
          "type": "address"
        },
        {
          "name": "_addedValue",
          "type": "uint256"
        }
      ],
      "name": "increaseApproval",
      "outputs": [
        {
          "name": "",
          "type": "bool"
        }
      ],
      "payable": false,
      "stateMutability": "nonpayable",
      "type": "function"
    },
    {
      "constant": true,
      "inputs": [
        {
          "name": "_owner",
          "type": "address"
        },
        {
          "name": "_spender",
          "type": "address"
        }
      ],
      "name": "allowance",
      "outputs": [
        {
          "name": "",
          "type": "uint256"
        }
      ],
      "payable": false,
      "stateMutability": "view",
      "type": "function"
    },
    {
      "constant": true,
      "inputs": [],
      "name": "pendingOwner",
      "outputs": [
        {
          "name": "",
          "type": "address"
        }
      ],
      "payable": false,
      "stateMutability": "view",
      "type": "function"
    },
    {
      "constant": false,
      "inputs": [
        {
          "name": "newOwner",
          "type": "address"
        }
      ],
      "name": "transferOwnership",
      "outputs": [],
      "payable": false,
      "stateMutability": "nonpayable",
      "type": "function"
    },
    {
      "constant": true,
      "inputs": [
        {
          "name": "_index",
          "type": "uint256"
        }
      ],
      "name": "getUserByIndex",
      "outputs": [
        {
          "name": "",
          "type": "string"
        },
        {
          "name": "",
          "type": "uint256"
        }
      ],
      "payable": false,
      "stateMutability": "view",
      "type": "function"
    },
    {
      "inputs": [],
      "payable": false,
      "stateMutability": "nonpayable",
      "type": "constructor"
    },
    {
      "anonymous": false,
      "inputs": [
        {
          "indexed": false,
          "name": "_name",
          "type": "string"
        }
      ],
      "name": "ChangeTokenName",
      "type": "event"
    },
    {
      "anonymous": false,
      "inputs": [
        {
          "indexed": false,
          "name": "_symbol",
          "type": "string"
        }
      ],
      "name": "ChangeTokenSymbol",
      "type": "event"
    },
    {
      "anonymous": false,
      "inputs": [
        {
          "indexed": false,
          "name": "_emailHash",
          "type": "string"
        },
        {
          "indexed": false,
          "name": "_balance",
          "type": "uint256"
        }
      ],
      "name": "UserUpdated",
      "type": "event"
    },
    {
      "anonymous": false,
      "inputs": [
        {
          "indexed": true,
          "name": "previousOwner",
          "type": "address"
        },
        {
          "indexed": true,
          "name": "newOwner",
          "type": "address"
        }
      ],
      "name": "OwnershipTransferred",
      "type": "event"
    },
    {
      "anonymous": false,
      "inputs": [
        {
          "indexed": true,
          "name": "owner",
          "type": "address"
        },
        {
          "indexed": true,
          "name": "spender",
          "type": "address"
        },
        {
          "indexed": false,
          "name": "value",
          "type": "uint256"
        }
      ],
      "name": "Approval",
      "type": "event"
    },
    {
      "anonymous": false,
      "inputs": [
        {
          "indexed": true,
          "name": "from",
          "type": "address"
        },
        {
          "indexed": true,
          "name": "to",
          "type": "address"
        },
        {
          "indexed": false,
          "name": "value",
          "type": "uint256"
        }
      ],
      "name": "Transfer",
      "type": "event"
    },
    {
      "constant": true,
      "inputs": [],
      "name": "totalSupply",
      "outputs": [
        {
          "name": "",
          "type": "uint256"
        }
      ],
      "payable": false,
      "stateMutability": "view",
      "type": "function"
    },
    {
      "constant": false,
      "inputs": [
        {
          "name": "_name",
          "type": "string"
        }
      ],
      "name": "changeTokenName",
      "outputs": [],
      "payable": false,
      "stateMutability": "nonpayable",
      "type": "function"
    },
    {
      "constant": false,
      "inputs": [
        {
          "name": "_symbol",
          "type": "string"
        }
      ],
      "name": "changeTokenSymbol",
      "outputs": [],
      "payable": false,
      "stateMutability": "nonpayable",
      "type": "function"
    },
    {
      "constant": false,
      "inputs": [],
      "name": "restrictTransfer",
      "outputs": [],
      "payable": false,
      "stateMutability": "nonpayable",
      "type": "function"
    },
    {
      "constant": false,
      "inputs": [],
      "name": "unrestrictTransfer",
      "outputs": [],
      "payable": false,
      "stateMutability": "nonpayable",
      "type": "function"
    },
    {
      "constant": false,
      "inputs": [
        {
          "name": "_to",
          "type": "address"
        },
        {
          "name": "_value",
          "type": "uint256"
        }
      ],
      "name": "transfer",
      "outputs": [
        {
          "name": "",
          "type": "bool"
        }
      ],
      "payable": false,
      "stateMutability": "nonpayable",
      "type": "function"
    },
    {
      "constant": false,
      "inputs": [
        {
          "name": "from",
          "type": "address"
        },
        {
          "name": "to",
          "type": "address"
        },
        {
          "name": "value",
          "type": "uint256"
        }
      ],
      "name": "transferFrom",
      "outputs": [
        {
          "name": "",
          "type": "bool"
        }
      ],
      "payable": false,
      "stateMutability": "nonpayable",
      "type": "function"
    },
    {
      "constant": false,
      "inputs": [
        {
          "name": "spender",
          "type": "address"
        },
        {
          "name": "value",
          "type": "uint256"
        }
      ],
      "name": "approve",
      "outputs": [
        {
          "name": "",
          "type": "bool"
        }
      ],
      "payable": false,
      "stateMutability": "nonpayable",
      "type": "function"
    }
  ],
  "bytecode": "0x60078054601260ff19909116179081905560ff16600a0a620f42400260085560c0604052600560808190527f636974657800000000000000000000000000000000000000000000000000000060a09081526200005f9160099190620000fa565b506040805180820190915260038082527f63697800000000000000000000000000000000000000000000000000000000006020909201918252620000a691600a91620000fa565b50600b805460ff19166001179055348015620000c157600080fd5b5060038054600160a060020a031916331790819055600854600160a060020a03919091166000908152602081905260409020556200019f565b828054600181600116156101000203166002900490600052602060002090601f016020900481019282601f106200013d57805160ff19168380011785556200016d565b828001600101855582156200016d579182015b828111156200016d57825182559160200191906001019062000150565b506200017b9291506200017f565b5090565b6200019c91905b808211156200017b576000815560010162000186565b90565b61138c80620001af6000396000f3006080604052600436106101245763ffffffff60e060020a60003504166306fdde038114610129578063095ea7b3146101b357806318160ddd146101eb57806323b872dd14610212578063313ce5671461023c5780634e71e0c814610267578063661884631461027e578063695a7d49146102a25780637072c6b1146102ba57806370a08231146102cf5780637c9b7fdd146102f05780638da5cb5b1461034957806395d89b411461037a578063a7189de61461038f578063a9059cbb146103ea578063b0018bfc1461040e578063bc38d21414610467578063c6d3ab9d1461047c578063ceb5b638146104d5578063d73dd623146104ea578063dd62ed3e1461050e578063e30c397814610535578063f2fde38b1461054a578063ff5d32fe1461056b575b600080fd5b34801561013557600080fd5b5061013e610602565b6040805160208082528351818301528351919283929083019185019080838360005b83811015610178578181015183820152602001610160565b50505050905090810190601f1680156101a55780820380516001836020036101000a031916815260200191505b509250505060405180910390f35b3480156101bf57600080fd5b506101d7600160a060020a0360043516602435610690565b604080519115158252519081900360200190f35b3480156101f757600080fd5b506102006106ed565b60408051918252519081900360200190f35b34801561021e57600080fd5b506101d7600160a060020a03600435811690602435166044356106f4565b34801561024857600080fd5b50610251610753565b6040805160ff9092168252519081900360200190f35b34801561027357600080fd5b5061027c61075c565b005b34801561028a57600080fd5b506101d7600160a060020a03600435166024356107d9565b3480156102ae57600080fd5b5061013e6004356108b7565b3480156102c657600080fd5b506101d761092b565b3480156102db57600080fd5b50610200600160a060020a0360043516610934565b3480156102fc57600080fd5b506040805160206004803580820135601f810184900484028501840190955284845261020094369492936024939284019190819084018382808284375094975061094f9650505050505050565b34801561035557600080fd5b5061035e6109b7565b60408051600160a060020a039092168252519081900360200190f35b34801561038657600080fd5b5061013e6109c6565b34801561039b57600080fd5b506040805160206004803580820135601f81018490048402850184019095528484526101d79436949293602493928401919081908401838280828437509497505093359450610a219350505050565b3480156103f657600080fd5b506101d7600160a060020a0360043516602435610b8e565b34801561041a57600080fd5b506040805160206004803580820135601f810184900484028501840190955284845261027c943694929360249392840191908190840183828082843750949750610c109650505050505050565b34801561047357600080fd5b5061027c610cd7565b34801561048857600080fd5b506040805160206004803580820135601f810184900484028501840190955284845261027c943694929360249392840191908190840183828082843750949750610cfa9650505050505050565b3480156104e157600080fd5b5061027c610d83565b3480156104f657600080fd5b506101d7600160a060020a0360043516602435610da9565b34801561051a57600080fd5b50610200600160a060020a0360043581169060243516610e30565b34801561054157600080fd5b5061035e610e5b565b34801561055657600080fd5b5061027c600160a060020a0360043516610e6a565b34801561057757600080fd5b50610583600435610ea3565b6040518080602001838152602001828103825284818151815260200191508051906020019080838360005b838110156105c65781810151838201526020016105ae565b50505050905090810190601f1680156105f35780820380516001836020036101000a031916815260200191505b50935050505060405180910390f35b6009805460408051602060026001851615610100026000190190941693909304601f810184900484028201840190925281815292918301828280156106885780601f1061065d57610100808354040283529160200191610688565b820191906000526020600020905b81548152906001019060200180831161066b57829003601f168201915b505050505081565b600b5460009060ff16156106dc576040805160e560020a62461bcd0281526020600482015260146024820152600080516020611301833981519152604482015290519081900360640190fd5b6106e68383610fbb565b5092915050565b6008545b90565b600b5460009060ff1615610740576040805160e560020a62461bcd0281526020600482015260146024820152600080516020611301833981519152604482015290519081900360640190fd5b61074b84848461100f565b509392505050565b60075460ff1681565b600454600160a060020a0316331461077357600080fd5b600454600354604051600160a060020a0392831692909116907f8be0079c531659141344cd1fd0a4f28419497f9722a3daafe3b4186f6b6457e090600090a36004805460038054600160a060020a0319908116600160a060020a03841617909155169055565b336000908152600260209081526040808320600160a060020a03861684529091528120548083111561082e57336000908152600260209081526040808320600160a060020a0388168452909152812055610863565b61083e818463ffffffff61117416565b336000908152600260209081526040808320600160a060020a03891684529091529020555b336000818152600260209081526040808320600160a060020a038916808552908352928190205481519081529051929392600080516020611341833981519152929181900390910190a35060019392505050565b60068054829081106108c557fe5b600091825260209182902001805460408051601f60026000196101006001871615020190941693909304928301859004850281018501909152818152935090918301828280156106885780601f1061065d57610100808354040283529160200191610688565b600b5460ff1681565b600160a060020a031660009081526020819052604090205490565b60006005826040518082805190602001908083835b602083106109835780518252601f199092019160209182019101610964565b51815160209384036101000a6000190180199092169116179052920194855250604051938490030190922054949350505050565b600354600160a060020a031681565b600a805460408051602060026001851615610100026000190190941693909304601f810184900484028201840190925281815292918301828280156106885780601f1061065d57610100808354040283529160200191610688565b600354600090600160a060020a03163314610a3b57600080fd5b60068054600181018083556000929092528451610a7f917ff652222313e28459528d920b65115c16c04f3efc82aaedc97be59f3f377c0d3f01906020870190611268565b5050816005846040518082805190602001908083835b60208310610ab45780518252601f199092019160209182019101610a95565b51815160209384036101000a600019018019909216911617905292019485525060408051948590038201852095909555838101879052848452875194840194909452505084517fc73ed428307f6bb03acd9dd70c99a1063a78e98b9437c4d2b0391be33cdab02f928692869290918291606083019186019080838360005b83811015610b4a578181015183820152602001610b32565b50505050905090810190601f168015610b775780820380516001836020036101000a031916815260200191505b50935050505060405180910390a150600192915050565b600b5460009060ff1615610c0657600354600160a060020a0384811691161480610bc25750600354600160a060020a031633145b1515610c06576040805160e560020a62461bcd0281526020600482015260146024820152600080516020611301833981519152604482015290519081900360640190fd5b6106e68383611186565b600354600160a060020a03163314610c2757600080fd5b8051610c3a906009906020840190611268565b507f4e0852467c2b331035f50451edbb79ad9131f8dc8cf06760147b4f95c2ec0fc7816040518080602001828103825283818151815260200191508051906020019080838360005b83811015610c9a578181015183820152602001610c82565b50505050905090810190601f168015610cc75780820380516001836020036101000a031916815260200191505b509250505060405180910390a150565b600354600160a060020a03163314610cee57600080fd5b600b805460ff19169055565b600354600160a060020a03163314610d1157600080fd5b8051610d2490600a906020840190611268565b507f4ac565b1ffbe935b4755372c8c6475e0f25ec688eee097ab8200f8ceb5730dca8160405180806020018281038252838181518152602001915080519060200190808383600083811015610c9a578181015183820152602001610c82565b600354600160a060020a03163314610d9a57600080fd5b600b805460ff19166001179055565b336000908152600260209081526040808320600160a060020a0386168452909152812054610ddd908363ffffffff61125516565b336000818152600260209081526040808320600160a060020a038916808552908352928190208590558051948552519193600080516020611341833981519152929081900390910190a350600192915050565b600160a060020a03918216600090815260026020908152604080832093909416825291909152205490565b600454600160a060020a031681565b600354600160a060020a03163314610e8157600080fd5b60048054600160a060020a031916600160a060020a0392909216919091179055565b6060600060606000600685815481101515610eba57fe5b600091825260209182902001805460408051601f6002600019610100600187161502019094169390930492830185900485028101850190915281815292830182828015610f485780601f10610f1d57610100808354040283529160200191610f48565b820191906000526020600020905b815481529060010190602001808311610f2b57829003601f168201915b505050505091506005826040518082805190602001908083835b60208310610f815780518252601f199092019160209182019101610f62565b51815160209384036101000a6000190180199092169116179052920194855250604051938490030190922054939793965092945050505050565b336000818152600260209081526040808320600160a060020a03871680855290835281842086905581518681529151939490939092600080516020611341833981519152928290030190a350600192915050565b6000600160a060020a038316151561102657600080fd5b600160a060020a03841660009081526020819052604090205482111561104b57600080fd5b600160a060020a038416600090815260026020908152604080832033845290915290205482111561107b57600080fd5b600160a060020a0384166000908152602081905260409020546110a4908363ffffffff61117416565b600160a060020a0380861660009081526020819052604080822093909355908516815220546110d9908363ffffffff61125516565b600160a060020a0380851660009081526020818152604080832094909455918716815260028252828120338252909152205461111b908363ffffffff61117416565b600160a060020a0380861660008181526002602090815260408083203384528252918290209490945580518681529051928716939192600080516020611321833981519152929181900390910190a35060019392505050565b60008282111561118057fe5b50900390565b6000600160a060020a038316151561119d57600080fd5b336000908152602081905260409020548211156111b957600080fd5b336000908152602081905260409020546111d9908363ffffffff61117416565b3360009081526020819052604080822092909255600160a060020a0385168152205461120b908363ffffffff61125516565b600160a060020a038416600081815260208181526040918290209390935580518581529051919233926000805160206113218339815191529281900390910190a350600192915050565b8181018281101561126257fe5b92915050565b828054600181600116156101000203166002900490600052602060002090601f016020900481019282601f106112a957805160ff19168380011785556112d6565b828001600101855582156112d6579182015b828111156112d65782518255916020019190600101906112bb565b506112e29291506112e6565b5090565b6106f191905b808211156112e257600081556001016112ec5600547261646520697320726573747269637465642e000000000000000000000000ddf252ad1be2c89b69c2b068fc378daa952ba7f163c4a11628f55a4df523b3ef8c5be1e5ebec7d5bd14f71427d1e84f3dd0314c0f7b2291e5b200ac8c7c3b925a165627a7a72305820a937b136aa42bf2fad8f8ddd3622bc0582c09ea93721eb552085284d006855540029",
  "source": "pragma solidity ^0.4.24;\r\n\r\nimport \"openzeppelin-solidity/contracts/token/ERC20/StandardToken.sol\";\r\nimport \"./Identification.sol\";\r\n\r\ncontract CitexToken is StandardToken, Identification {\r\n\r\n    uint8 public decimals = 18;\r\n    uint256 totalSupply_ = 1000000 * 10**uint256(decimals);\r\n    string public name = \"citex\";\r\n    string public symbol = \"cix\";\r\n\r\n    event ChangeTokenName(string _name);\r\n    event ChangeTokenSymbol(string _symbol);\r\n\r\n    constructor() {\r\n        balances[owner] = totalSupply_;\r\n    }\r\n        \r\n    bool public restricted = true;\r\n    \r\n    function totalSupply() public view returns (uint256) {\r\n        return totalSupply_;\r\n    }\r\n\r\n    function changeTokenName(string _name) public onlyOwner {\r\n        name = _name;\r\n        emit ChangeTokenName(_name);\r\n    }\r\n\r\n    function changeTokenSymbol(string _symbol) public onlyOwner {\r\n        symbol = _symbol;\r\n        emit ChangeTokenSymbol(_symbol);\r\n    }\r\n\r\n    function restrictTransfer() public onlyOwner {\r\n        restricted = true;\r\n    }\r\n\r\n    function unrestrictTransfer() public onlyOwner {\r\n        restricted = false;\r\n    }\r\n\r\n    function transfer(address _to, uint256 _value) public returns (bool) {\r\n        if (restricted) {\r\n            require(_to == owner || msg.sender == owner, \"Trade is restricted.\");\r\n        }\r\n        super.transfer(_to, _value);\r\n    }\r\n    \r\n    function transferFrom(address from, address to, uint256 value) public returns (bool) {\r\n        require(restricted == false, \"Trade is restricted.\");\r\n        super.transferFrom(from, to, value);\r\n    }\r\n    \r\n    function approve(address spender, uint256 value) public returns (bool) {\r\n        require(restricted == false, \"Trade is restricted.\");\r\n        super.approve(spender, value);\r\n    }\r\n\r\n}",
  "sourcePath": "G:\\Root\\Blockchain\\areaTeck\\citexToken\\contracts\\CitexToken.sol",
  "compiler": {
    "name": "solc",
    "version": "0.4.24+commit.e67f0147.Emscripten.clang"
  },
  "schemaVersion": "2.0.1",
  "updatedAt": "2018-10-03T12:46:46.106Z"
}