{
  "contractName": "citexToken",
  "abi": [
    {
      "constant": true,
      "inputs": [],
      "name": "name",
      "outputs": [
        {
          "name": "",
          "type": "string"
        }
      ],
      "payable": false,
      "stateMutability": "view",
      "type": "function"
    },
    {
      "constant": true,
      "inputs": [],
      "name": "decimals",
      "outputs": [
        {
          "name": "",
          "type": "uint8"
        }
      ],
      "payable": false,
      "stateMutability": "view",
      "type": "function"
    },
    {
      "constant": false,
      "inputs": [],
      "name": "claimOwnership",
      "outputs": [],
      "payable": false,
      "stateMutability": "nonpayable",
      "type": "function"
    },
    {
      "constant": false,
      "inputs": [
        {
          "name": "_spender",
          "type": "address"
        },
        {
          "name": "_subtractedValue",
          "type": "uint256"
        }
      ],
      "name": "decreaseApproval",
      "outputs": [
        {
          "name": "",
          "type": "bool"
        }
      ],
      "payable": false,
      "stateMutability": "nonpayable",
      "type": "function"
    },
    {
      "constant": true,
      "inputs": [],
      "name": "restricted",
      "outputs": [
        {
          "name": "",
          "type": "bool"
        }
      ],
      "payable": false,
      "stateMutability": "view",
      "type": "function"
    },
    {
      "constant": true,
      "inputs": [
        {
          "name": "_owner",
          "type": "address"
        }
      ],
      "name": "balanceOf",
      "outputs": [
        {
          "name": "",
          "type": "uint256"
        }
      ],
      "payable": false,
      "stateMutability": "view",
      "type": "function"
    },
    {
      "constant": true,
      "inputs": [],
      "name": "owner",
      "outputs": [
        {
          "name": "",
          "type": "address"
        }
      ],
      "payable": false,
      "stateMutability": "view",
      "type": "function"
    },
    {
      "constant": true,
      "inputs": [],
      "name": "symbol",
      "outputs": [
        {
          "name": "",
          "type": "string"
        }
      ],
      "payable": false,
      "stateMutability": "view",
      "type": "function"
    },
    {
      "constant": false,
      "inputs": [
        {
          "name": "_spender",
          "type": "address"
        },
        {
          "name": "_addedValue",
          "type": "uint256"
        }
      ],
      "name": "increaseApproval",
      "outputs": [
        {
          "name": "",
          "type": "bool"
        }
      ],
      "payable": false,
      "stateMutability": "nonpayable",
      "type": "function"
    },
    {
      "constant": true,
      "inputs": [
        {
          "name": "_owner",
          "type": "address"
        },
        {
          "name": "_spender",
          "type": "address"
        }
      ],
      "name": "allowance",
      "outputs": [
        {
          "name": "",
          "type": "uint256"
        }
      ],
      "payable": false,
      "stateMutability": "view",
      "type": "function"
    },
    {
      "constant": true,
      "inputs": [],
      "name": "pendingOwner",
      "outputs": [
        {
          "name": "",
          "type": "address"
        }
      ],
      "payable": false,
      "stateMutability": "view",
      "type": "function"
    },
    {
      "constant": false,
      "inputs": [
        {
          "name": "newOwner",
          "type": "address"
        }
      ],
      "name": "transferOwnership",
      "outputs": [],
      "payable": false,
      "stateMutability": "nonpayable",
      "type": "function"
    },
    {
      "inputs": [],
      "payable": false,
      "stateMutability": "nonpayable",
      "type": "constructor"
    },
    {
      "anonymous": false,
      "inputs": [
        {
          "indexed": false,
          "name": "_name",
          "type": "string"
        }
      ],
      "name": "ChangeTokenName",
      "type": "event"
    },
    {
      "anonymous": false,
      "inputs": [
        {
          "indexed": false,
          "name": "_symbol",
          "type": "string"
        }
      ],
      "name": "ChangeTokenSymbol",
      "type": "event"
    },
    {
      "anonymous": false,
      "inputs": [
        {
          "indexed": true,
          "name": "previousOwner",
          "type": "address"
        },
        {
          "indexed": true,
          "name": "newOwner",
          "type": "address"
        }
      ],
      "name": "OwnershipTransferred",
      "type": "event"
    },
    {
      "anonymous": false,
      "inputs": [
        {
          "indexed": true,
          "name": "owner",
          "type": "address"
        },
        {
          "indexed": true,
          "name": "spender",
          "type": "address"
        },
        {
          "indexed": false,
          "name": "value",
          "type": "uint256"
        }
      ],
      "name": "Approval",
      "type": "event"
    },
    {
      "anonymous": false,
      "inputs": [
        {
          "indexed": true,
          "name": "from",
          "type": "address"
        },
        {
          "indexed": true,
          "name": "to",
          "type": "address"
        },
        {
          "indexed": false,
          "name": "value",
          "type": "uint256"
        }
      ],
      "name": "Transfer",
      "type": "event"
    },
    {
      "constant": true,
      "inputs": [],
      "name": "totalSupply",
      "outputs": [
        {
          "name": "",
          "type": "uint256"
        }
      ],
      "payable": false,
      "stateMutability": "view",
      "type": "function"
    },
    {
      "constant": false,
      "inputs": [
        {
          "name": "_name",
          "type": "string"
        }
      ],
      "name": "changeTokenName",
      "outputs": [],
      "payable": false,
      "stateMutability": "nonpayable",
      "type": "function"
    },
    {
      "constant": false,
      "inputs": [
        {
          "name": "_symbol",
          "type": "string"
        }
      ],
      "name": "changeTokenSymbol",
      "outputs": [],
      "payable": false,
      "stateMutability": "nonpayable",
      "type": "function"
    },
    {
      "constant": false,
      "inputs": [],
      "name": "restrictTransfer",
      "outputs": [],
      "payable": false,
      "stateMutability": "nonpayable",
      "type": "function"
    },
    {
      "constant": false,
      "inputs": [],
      "name": "unrestrictTransfer",
      "outputs": [],
      "payable": false,
      "stateMutability": "nonpayable",
      "type": "function"
    },
    {
      "constant": false,
      "inputs": [
        {
          "name": "_to",
          "type": "address"
        },
        {
          "name": "_value",
          "type": "uint256"
        }
      ],
      "name": "transfer",
      "outputs": [
        {
          "name": "",
          "type": "bool"
        }
      ],
      "payable": false,
      "stateMutability": "nonpayable",
      "type": "function"
    },
    {
      "constant": false,
      "inputs": [
        {
          "name": "from",
          "type": "address"
        },
        {
          "name": "to",
          "type": "address"
        },
        {
          "name": "value",
          "type": "uint256"
        }
      ],
      "name": "transferFrom",
      "outputs": [
        {
          "name": "",
          "type": "bool"
        }
      ],
      "payable": false,
      "stateMutability": "nonpayable",
      "type": "function"
    },
    {
      "constant": false,
      "inputs": [
        {
          "name": "spender",
          "type": "address"
        },
        {
          "name": "value",
          "type": "uint256"
        }
      ],
      "name": "approve",
      "outputs": [
        {
          "name": "",
          "type": "bool"
        }
      ],
      "payable": false,
      "stateMutability": "nonpayable",
      "type": "function"
    }
  ],
  "bytecode": "0x6004805460a060020a60ff02191674120000000000000000000000000000000000000000179081905560ff7401000000000000000000000000000000000000000090910416600a0a620f424002600590815560c060405260808190527f636974657800000000000000000000000000000000000000000000000000000060a090815261008e9160069190610125565b506040805180820190915260038082527f636978000000000000000000000000000000000000000000000000000000000060209092019182526100d391600791610125565b506008805460ff191660011790553480156100ed57600080fd5b5060038054600160a060020a031916331790819055600554600160a060020a03919091166000908152602081905260409020556101c0565b828054600181600116156101000203166002900490600052602060002090601f016020900481019282601f1061016657805160ff1916838001178555610193565b82800160010185558215610193579182015b82811115610193578251825591602001919060010190610178565b5061019f9291506101a3565b5090565b6101bd91905b8082111561019f57600081556001016101a9565b90565b610ea3806101cf6000396000f3006080604052600436106100f85763ffffffff60e060020a60003504166306fdde0381146100fd578063095ea7b31461018757806318160ddd146101bf57806323b872dd146101e6578063313ce567146102105780634e71e0c81461023b57806366188463146102525780637072c6b11461027657806370a082311461028b5780638da5cb5b146102ac57806395d89b41146102dd578063a9059cbb146102f2578063b0018bfc14610316578063bc38d2141461036f578063c6d3ab9d14610384578063ceb5b638146103dd578063d73dd623146103f2578063dd62ed3e14610416578063e30c39781461043d578063f2fde38b14610452575b600080fd5b34801561010957600080fd5b50610112610473565b6040805160208082528351818301528351919283929083019185019080838360005b8381101561014c578181015183820152602001610134565b50505050905090810190601f1680156101795780820380516001836020036101000a031916815260200191505b509250505060405180910390f35b34801561019357600080fd5b506101ab600160a060020a0360043516602435610501565b604080519115158252519081900360200190f35b3480156101cb57600080fd5b506101d461055e565b60408051918252519081900360200190f35b3480156101f257600080fd5b506101ab600160a060020a0360043581169060243516604435610565565b34801561021c57600080fd5b506102256105c4565b6040805160ff9092168252519081900360200190f35b34801561024757600080fd5b506102506105d4565b005b34801561025e57600080fd5b506101ab600160a060020a0360043516602435610651565b34801561028257600080fd5b506101ab61072f565b34801561029757600080fd5b506101d4600160a060020a0360043516610738565b3480156102b857600080fd5b506102c1610753565b60408051600160a060020a039092168252519081900360200190f35b3480156102e957600080fd5b50610112610762565b3480156102fe57600080fd5b506101ab600160a060020a03600435166024356107bd565b34801561032257600080fd5b506040805160206004803580820135601f810184900484028501840190955284845261025094369492936024939284019190819084018382808284375094975061083f9650505050505050565b34801561037b57600080fd5b50610250610906565b34801561039057600080fd5b506040805160206004803580820135601f81018490048402850184019095528484526102509436949293602493928401919081908401838280828437509497506109299650505050505050565b3480156103e957600080fd5b506102506109b2565b3480156103fe57600080fd5b506101ab600160a060020a03600435166024356109d8565b34801561042257600080fd5b506101d4600160a060020a0360043581169060243516610a5f565b34801561044957600080fd5b506102c1610a8a565b34801561045e57600080fd5b50610250600160a060020a0360043516610a99565b6006805460408051602060026001851615610100026000190190941693909304601f810184900484028201840190925281815292918301828280156104f95780601f106104ce576101008083540402835291602001916104f9565b820191906000526020600020905b8154815290600101906020018083116104dc57829003601f168201915b505050505081565b60085460009060ff161561054d576040805160e560020a62461bcd0281526020600482015260146024820152600080516020610e18833981519152604482015290519081900360640190fd5b6105578383610ad2565b5092915050565b6005545b90565b60085460009060ff16156105b1576040805160e560020a62461bcd0281526020600482015260146024820152600080516020610e18833981519152604482015290519081900360640190fd5b6105bc848484610b26565b509392505050565b60045460a060020a900460ff1681565b600454600160a060020a031633146105eb57600080fd5b600454600354604051600160a060020a0392831692909116907f8be0079c531659141344cd1fd0a4f28419497f9722a3daafe3b4186f6b6457e090600090a36004805460038054600160a060020a0319908116600160a060020a03841617909155169055565b336000908152600260209081526040808320600160a060020a0386168452909152812054808311156106a657336000908152600260209081526040808320600160a060020a03881684529091528120556106db565b6106b6818463ffffffff610c8b16565b336000908152600260209081526040808320600160a060020a03891684529091529020555b336000818152600260209081526040808320600160a060020a038916808552908352928190205481519081529051929392600080516020610e58833981519152929181900390910190a35060019392505050565b60085460ff1681565b600160a060020a031660009081526020819052604090205490565b600354600160a060020a031681565b6007805460408051602060026001851615610100026000190190941693909304601f810184900484028201840190925281815292918301828280156104f95780601f106104ce576101008083540402835291602001916104f9565b60085460009060ff161561083557600354600160a060020a03848116911614806107f15750600354600160a060020a031633145b1515610835576040805160e560020a62461bcd0281526020600482015260146024820152600080516020610e18833981519152604482015290519081900360640190fd5b6105578383610c9d565b600354600160a060020a0316331461085657600080fd5b8051610869906006906020840190610d7f565b507f4e0852467c2b331035f50451edbb79ad9131f8dc8cf06760147b4f95c2ec0fc7816040518080602001828103825283818151815260200191508051906020019080838360005b838110156108c95781810151838201526020016108b1565b50505050905090810190601f1680156108f65780820380516001836020036101000a031916815260200191505b509250505060405180910390a150565b600354600160a060020a0316331461091d57600080fd5b6008805460ff19169055565b600354600160a060020a0316331461094057600080fd5b8051610953906007906020840190610d7f565b507f4ac565b1ffbe935b4755372c8c6475e0f25ec688eee097ab8200f8ceb5730dca81604051808060200182810382528381815181526020019150805190602001908083836000838110156108c95781810151838201526020016108b1565b600354600160a060020a031633146109c957600080fd5b6008805460ff19166001179055565b336000908152600260209081526040808320600160a060020a0386168452909152812054610a0c908363ffffffff610d6c16565b336000818152600260209081526040808320600160a060020a038916808552908352928190208590558051948552519193600080516020610e58833981519152929081900390910190a350600192915050565b600160a060020a03918216600090815260026020908152604080832093909416825291909152205490565b600454600160a060020a031681565b600354600160a060020a03163314610ab057600080fd5b60048054600160a060020a031916600160a060020a0392909216919091179055565b336000818152600260209081526040808320600160a060020a03871680855290835281842086905581518681529151939490939092600080516020610e58833981519152928290030190a350600192915050565b6000600160a060020a0383161515610b3d57600080fd5b600160a060020a038416600090815260208190526040902054821115610b6257600080fd5b600160a060020a0384166000908152600260209081526040808320338452909152902054821115610b9257600080fd5b600160a060020a038416600090815260208190526040902054610bbb908363ffffffff610c8b16565b600160a060020a038086166000908152602081905260408082209390935590851681522054610bf0908363ffffffff610d6c16565b600160a060020a03808516600090815260208181526040808320949094559187168152600282528281203382529091522054610c32908363ffffffff610c8b16565b600160a060020a0380861660008181526002602090815260408083203384528252918290209490945580518681529051928716939192600080516020610e38833981519152929181900390910190a35060019392505050565b600082821115610c9757fe5b50900390565b6000600160a060020a0383161515610cb457600080fd5b33600090815260208190526040902054821115610cd057600080fd5b33600090815260208190526040902054610cf0908363ffffffff610c8b16565b3360009081526020819052604080822092909255600160a060020a03851681522054610d22908363ffffffff610d6c16565b600160a060020a03841660008181526020818152604091829020939093558051858152905191923392600080516020610e388339815191529281900390910190a350600192915050565b81810182811015610d7957fe5b92915050565b828054600181600116156101000203166002900490600052602060002090601f016020900481019282601f10610dc057805160ff1916838001178555610ded565b82800160010185558215610ded579182015b82811115610ded578251825591602001919060010190610dd2565b50610df9929150610dfd565b5090565b61056291905b80821115610df95760008155600101610e035600547261646520697320726573747269637465642e000000000000000000000000ddf252ad1be2c89b69c2b068fc378daa952ba7f163c4a11628f55a4df523b3ef8c5be1e5ebec7d5bd14f71427d1e84f3dd0314c0f7b2291e5b200ac8c7c3b925a165627a7a72305820c6cd4ff6c618f86e75c297b857c8312dcf822eaabef5aa86cc998b49c158ae120029",
  "source": "pragma solidity ^0.4.23;\r\n\r\nimport \"openzeppelin-solidity/contracts/ownership/Claimable.sol\";\r\nimport \"openzeppelin-solidity/contracts/token/ERC20/StandardToken.sol\";\r\n\r\ncontract citexToken is StandardToken, Claimable {\r\n    uint8 public decimals = 18;\r\n    uint256 totalSupply_ = 1000000 * 10**uint256(decimals);\r\n    string public name = \"citex\";\r\n    string public symbol = \"cix\";\r\n\r\n    event ChangeTokenName(string _name);\r\n    event ChangeTokenSymbol(string _symbol);\r\n\r\n    constructor() {\r\n        balances[owner] = totalSupply_;\r\n    }\r\n        \r\n    bool public restricted = true;\r\n    \r\n    function totalSupply() public view returns (uint256) {\r\n        return totalSupply_;\r\n     }\r\n\r\n    function changeTokenName(string _name) public onlyOwner {\r\n        name = _name;\r\n        emit ChangeTokenName(_name);\r\n    }\r\n\r\n    function changeTokenSymbol(string _symbol) public onlyOwner {\r\n        symbol = _symbol;\r\n        emit ChangeTokenSymbol(_symbol);\r\n    }\r\n\r\n    function restrictTransfer() public onlyOwner {\r\n        restricted = true;\r\n    }\r\n\r\n    function unrestrictTransfer() public onlyOwner {\r\n        restricted = false;\r\n    }\r\n\r\n    function transfer(address _to, uint256 _value) public returns (bool) {\r\n        if (restricted) {\r\n            require(_to == owner || msg.sender == owner, \"Trade is restricted.\");\r\n        }\r\n        super.transfer(_to, _value);\r\n    }\r\n    \r\n    function transferFrom(address from, address to, uint256 value) public returns (bool) {\r\n        require(restricted == false, \"Trade is restricted.\");\r\n        super.transferFrom(from, to, value);\r\n    }\r\n    \r\n    function approve(address spender, uint256 value) public returns (bool) {\r\n        require(restricted == false, \"Trade is restricted.\");\r\n        super.approve(spender, value);\r\n    }\r\n\r\n}",
  "sourcePath": "G:\\Root\\Blockchain\\Citex\\citexToken\\contracts\\CitexToken.sol",
  "compiler": {
    "name": "solc",
    "version": "0.4.24+commit.e67f0147.Emscripten.clang"
  },
  "schemaVersion": "2.0.1",
  "updatedAt": "2018-09-29T06:15:36.039Z"
}