{
  "contractName": "CitexToken",
  "abi": [
    {
      "constant": true,
      "inputs": [],
      "name": "name",
      "outputs": [
        {
          "name": "",
          "type": "string"
        }
      ],
      "payable": false,
      "stateMutability": "view",
      "type": "function"
    },
    {
      "constant": true,
      "inputs": [],
      "name": "decimals",
      "outputs": [
        {
          "name": "",
          "type": "uint8"
        }
      ],
      "payable": false,
      "stateMutability": "view",
      "type": "function"
    },
    {
      "constant": false,
      "inputs": [
        {
          "name": "_spender",
          "type": "address"
        },
        {
          "name": "_subtractedValue",
          "type": "uint256"
        }
      ],
      "name": "decreaseApproval",
      "outputs": [
        {
          "name": "",
          "type": "bool"
        }
      ],
      "payable": false,
      "stateMutability": "nonpayable",
      "type": "function"
    },
    {
      "constant": true,
      "inputs": [
        {
          "name": "",
          "type": "uint256"
        }
      ],
      "name": "emails",
      "outputs": [
        {
          "name": "",
          "type": "string"
        }
      ],
      "payable": false,
      "stateMutability": "view",
      "type": "function"
    },
    {
      "constant": true,
      "inputs": [],
      "name": "restricted",
      "outputs": [
        {
          "name": "",
          "type": "bool"
        }
      ],
      "payable": false,
      "stateMutability": "view",
      "type": "function"
    },
    {
      "constant": true,
      "inputs": [
        {
          "name": "_owner",
          "type": "address"
        }
      ],
      "name": "balanceOf",
      "outputs": [
        {
          "name": "",
          "type": "uint256"
        }
      ],
      "payable": false,
      "stateMutability": "view",
      "type": "function"
    },
    {
      "constant": true,
      "inputs": [
        {
          "name": "_emailHash",
          "type": "string"
        }
      ],
      "name": "getUserInfo",
      "outputs": [
        {
          "name": "",
          "type": "uint256"
        }
      ],
      "payable": false,
      "stateMutability": "view",
      "type": "function"
    },
    {
      "constant": true,
      "inputs": [],
      "name": "owner",
      "outputs": [
        {
          "name": "",
          "type": "address"
        }
      ],
      "payable": false,
      "stateMutability": "view",
      "type": "function"
    },
    {
      "constant": true,
      "inputs": [],
      "name": "symbol",
      "outputs": [
        {
          "name": "",
          "type": "string"
        }
      ],
      "payable": false,
      "stateMutability": "view",
      "type": "function"
    },
    {
      "constant": false,
      "inputs": [
        {
          "name": "_emailHash",
          "type": "string"
        },
        {
          "name": "_balance",
          "type": "uint256"
        }
      ],
      "name": "setUserInfo",
      "outputs": [
        {
          "name": "",
          "type": "bool"
        }
      ],
      "payable": false,
      "stateMutability": "nonpayable",
      "type": "function"
    },
    {
      "constant": false,
      "inputs": [
        {
          "name": "_spender",
          "type": "address"
        },
        {
          "name": "_addedValue",
          "type": "uint256"
        }
      ],
      "name": "increaseApproval",
      "outputs": [
        {
          "name": "",
          "type": "bool"
        }
      ],
      "payable": false,
      "stateMutability": "nonpayable",
      "type": "function"
    },
    {
      "constant": true,
      "inputs": [
        {
          "name": "_owner",
          "type": "address"
        },
        {
          "name": "_spender",
          "type": "address"
        }
      ],
      "name": "allowance",
      "outputs": [
        {
          "name": "",
          "type": "uint256"
        }
      ],
      "payable": false,
      "stateMutability": "view",
      "type": "function"
    },
    {
      "constant": false,
      "inputs": [
        {
          "name": "newOwner",
          "type": "address"
        }
      ],
      "name": "transferOwnership",
      "outputs": [],
      "payable": false,
      "stateMutability": "nonpayable",
      "type": "function"
    },
    {
      "constant": true,
      "inputs": [
        {
          "name": "_index",
          "type": "uint256"
        }
      ],
      "name": "getUserByIndex",
      "outputs": [
        {
          "name": "",
          "type": "string"
        },
        {
          "name": "",
          "type": "uint256"
        }
      ],
      "payable": false,
      "stateMutability": "view",
      "type": "function"
    },
    {
      "inputs": [],
      "payable": false,
      "stateMutability": "nonpayable",
      "type": "constructor"
    },
    {
      "anonymous": false,
      "inputs": [
        {
          "indexed": false,
          "name": "_name",
          "type": "string"
        }
      ],
      "name": "ChangeTokenName",
      "type": "event"
    },
    {
      "anonymous": false,
      "inputs": [
        {
          "indexed": false,
          "name": "_symbol",
          "type": "string"
        }
      ],
      "name": "ChangeTokenSymbol",
      "type": "event"
    },
    {
      "anonymous": false,
      "inputs": [
        {
          "indexed": false,
          "name": "_emailHash",
          "type": "string"
        },
        {
          "indexed": false,
          "name": "_balance",
          "type": "uint256"
        }
      ],
      "name": "UserUpdated",
      "type": "event"
    },
    {
      "anonymous": false,
      "inputs": [
        {
          "indexed": true,
          "name": "previousOwner",
          "type": "address"
        },
        {
          "indexed": true,
          "name": "newOwner",
          "type": "address"
        }
      ],
      "name": "OwnershipTransferred",
      "type": "event"
    },
    {
      "anonymous": false,
      "inputs": [
        {
          "indexed": true,
          "name": "owner",
          "type": "address"
        },
        {
          "indexed": true,
          "name": "spender",
          "type": "address"
        },
        {
          "indexed": false,
          "name": "value",
          "type": "uint256"
        }
      ],
      "name": "Approval",
      "type": "event"
    },
    {
      "anonymous": false,
      "inputs": [
        {
          "indexed": true,
          "name": "from",
          "type": "address"
        },
        {
          "indexed": true,
          "name": "to",
          "type": "address"
        },
        {
          "indexed": false,
          "name": "value",
          "type": "uint256"
        }
      ],
      "name": "Transfer",
      "type": "event"
    },
    {
      "constant": true,
      "inputs": [],
      "name": "totalSupply",
      "outputs": [
        {
          "name": "",
          "type": "uint256"
        }
      ],
      "payable": false,
      "stateMutability": "view",
      "type": "function"
    },
    {
      "constant": false,
      "inputs": [
        {
          "name": "_name",
          "type": "string"
        }
      ],
      "name": "changeTokenName",
      "outputs": [],
      "payable": false,
      "stateMutability": "nonpayable",
      "type": "function"
    },
    {
      "constant": false,
      "inputs": [
        {
          "name": "_symbol",
          "type": "string"
        }
      ],
      "name": "changeTokenSymbol",
      "outputs": [],
      "payable": false,
      "stateMutability": "nonpayable",
      "type": "function"
    },
    {
      "constant": false,
      "inputs": [],
      "name": "restrictTransfer",
      "outputs": [],
      "payable": false,
      "stateMutability": "nonpayable",
      "type": "function"
    },
    {
      "constant": false,
      "inputs": [],
      "name": "unrestrictTransfer",
      "outputs": [],
      "payable": false,
      "stateMutability": "nonpayable",
      "type": "function"
    },
    {
      "constant": false,
      "inputs": [
        {
          "name": "_to",
          "type": "address"
        },
        {
          "name": "_value",
          "type": "uint256"
        }
      ],
      "name": "transfer",
      "outputs": [
        {
          "name": "",
          "type": "bool"
        }
      ],
      "payable": false,
      "stateMutability": "nonpayable",
      "type": "function"
    },
    {
      "constant": false,
      "inputs": [
        {
          "name": "from",
          "type": "address"
        },
        {
          "name": "to",
          "type": "address"
        },
        {
          "name": "value",
          "type": "uint256"
        }
      ],
      "name": "transferFrom",
      "outputs": [
        {
          "name": "",
          "type": "bool"
        }
      ],
      "payable": false,
      "stateMutability": "nonpayable",
      "type": "function"
    },
    {
      "constant": false,
      "inputs": [
        {
          "name": "spender",
          "type": "address"
        },
        {
          "name": "value",
          "type": "uint256"
        }
      ],
      "name": "approve",
      "outputs": [
        {
          "name": "",
          "type": "bool"
        }
      ],
      "payable": false,
      "stateMutability": "nonpayable",
      "type": "function"
    }
  ],
  "bytecode": "0x60068054601260ff19909116179081905560ff16600a0a620f42400260075560c0604052600560808190527f636974657800000000000000000000000000000000000000000000000000000060a09081526200005f9160089190620000fa565b506040805180820190915260038082527f63697800000000000000000000000000000000000000000000000000000000006020909201918252620000a691600991620000fa565b50600a805460ff19166001179055348015620000c157600080fd5b5060038054600160a060020a031916331790819055600754600160a060020a03919091166000908152602081905260409020556200019f565b828054600181600116156101000203166002900490600052602060002090601f016020900481019282601f106200013d57805160ff19168380011785556200016d565b828001600101855582156200016d579182015b828111156200016d57825182559160200191906001019062000150565b506200017b9291506200017f565b5090565b6200019c91905b808211156200017b576000815560010162000186565b90565b61130f80620001af6000396000f30060806040526004361061010e5763ffffffff60e060020a60003504166306fdde038114610113578063095ea7b31461019d57806318160ddd146101d557806323b872dd146101fc578063313ce567146102265780636618846314610251578063695a7d49146102755780637072c6b11461028d57806370a08231146102a25780637c9b7fdd146102c35780638da5cb5b1461031c57806395d89b411461034d578063a7189de614610362578063a9059cbb146103bd578063b0018bfc146103e1578063bc38d2141461043c578063c6d3ab9d14610451578063ceb5b638146104aa578063d73dd623146104bf578063dd62ed3e146104e3578063f2fde38b1461050a578063ff5d32fe1461052b575b600080fd5b34801561011f57600080fd5b506101286105c2565b6040805160208082528351818301528351919283929083019185019080838360005b8381101561016257818101518382015260200161014a565b50505050905090810190601f16801561018f5780820380516001836020036101000a031916815260200191505b509250505060405180910390f35b3480156101a957600080fd5b506101c1600160a060020a0360043516602435610650565b604080519115158252519081900360200190f35b3480156101e157600080fd5b506101ea6106ad565b60408051918252519081900360200190f35b34801561020857600080fd5b506101c1600160a060020a03600435811690602435166044356106b4565b34801561023257600080fd5b5061023b610713565b6040805160ff9092168252519081900360200190f35b34801561025d57600080fd5b506101c1600160a060020a036004351660243561071c565b34801561028157600080fd5b506101286004356107fa565b34801561029957600080fd5b506101c161086e565b3480156102ae57600080fd5b506101ea600160a060020a0360043516610877565b3480156102cf57600080fd5b506040805160206004803580820135601f81018490048402850184019095528484526101ea9436949293602493928401919081908401838280828437509497506108929650505050505050565b34801561032857600080fd5b506103316108fa565b60408051600160a060020a039092168252519081900360200190f35b34801561035957600080fd5b50610128610909565b34801561036e57600080fd5b506040805160206004803580820135601f81018490048402850184019095528484526101c194369492936024939284019190819084018382808284375094975050933594506109649350505050565b3480156103c957600080fd5b506101c1600160a060020a0360043516602435610ad1565b3480156103ed57600080fd5b506040805160206004803580820135601f810184900484028501840190955284845261043a943694929360249392840191908190840183828082843750949750610b539650505050505050565b005b34801561044857600080fd5b5061043a610c1a565b34801561045d57600080fd5b506040805160206004803580820135601f810184900484028501840190955284845261043a943694929360249392840191908190840183828082843750949750610c3d9650505050505050565b3480156104b657600080fd5b5061043a610cc6565b3480156104cb57600080fd5b506101c1600160a060020a0360043516602435610cec565b3480156104ef57600080fd5b506101ea600160a060020a0360043581169060243516610d73565b34801561051657600080fd5b5061043a600160a060020a0360043516610d9e565b34801561053757600080fd5b50610543600435610e26565b6040518080602001838152602001828103825284818151815260200191508051906020019080838360005b8381101561058657818101518382015260200161056e565b50505050905090810190601f1680156105b35780820380516001836020036101000a031916815260200191505b50935050505060405180910390f35b6008805460408051602060026001851615610100026000190190941693909304601f810184900484028201840190925281815292918301828280156106485780601f1061061d57610100808354040283529160200191610648565b820191906000526020600020905b81548152906001019060200180831161062b57829003601f168201915b505050505081565b600a5460009060ff161561069c576040805160e560020a62461bcd0281526020600482015260146024820152600080516020611284833981519152604482015290519081900360640190fd5b6106a68383610f3e565b5092915050565b6007545b90565b600a5460009060ff1615610700576040805160e560020a62461bcd0281526020600482015260146024820152600080516020611284833981519152604482015290519081900360640190fd5b61070b848484610f92565b509392505050565b60065460ff1681565b336000908152600260209081526040808320600160a060020a03861684529091528120548083111561077157336000908152600260209081526040808320600160a060020a03881684529091528120556107a6565b610781818463ffffffff6110f716565b336000908152600260209081526040808320600160a060020a03891684529091529020555b336000818152600260209081526040808320600160a060020a0389168085529083529281902054815190815290519293926000805160206112c4833981519152929181900390910190a35060019392505050565b600580548290811061080857fe5b600091825260209182902001805460408051601f60026000196101006001871615020190941693909304928301859004850281018501909152818152935090918301828280156106485780601f1061061d57610100808354040283529160200191610648565b600a5460ff1681565b600160a060020a031660009081526020819052604090205490565b60006004826040518082805190602001908083835b602083106108c65780518252601f1990920191602091820191016108a7565b51815160209384036101000a6000190180199092169116179052920194855250604051938490030190922054949350505050565b600354600160a060020a031681565b6009805460408051602060026001851615610100026000190190941693909304601f810184900484028201840190925281815292918301828280156106485780601f1061061d57610100808354040283529160200191610648565b600354600090600160a060020a0316331461097e57600080fd5b600580546001810180835560009290925284516109c2917f036b6384b5eca791c62761152d0c79bb0604c104a5fb6f4eb0703f3154bb3db0019060208701906111eb565b5050816004846040518082805190602001908083835b602083106109f75780518252601f1990920191602091820191016109d8565b51815160209384036101000a600019018019909216911617905292019485525060408051948590038201852095909555838101879052848452875194840194909452505084517fc73ed428307f6bb03acd9dd70c99a1063a78e98b9437c4d2b0391be33cdab02f928692869290918291606083019186019080838360005b83811015610a8d578181015183820152602001610a75565b50505050905090810190601f168015610aba5780820380516001836020036101000a031916815260200191505b50935050505060405180910390a150600192915050565b600a5460009060ff1615610b4957600354600160a060020a0384811691161480610b055750600354600160a060020a031633145b1515610b49576040805160e560020a62461bcd0281526020600482015260146024820152600080516020611284833981519152604482015290519081900360640190fd5b6106a68383611109565b600354600160a060020a03163314610b6a57600080fd5b8051610b7d9060089060208401906111eb565b507f4e0852467c2b331035f50451edbb79ad9131f8dc8cf06760147b4f95c2ec0fc7816040518080602001828103825283818151815260200191508051906020019080838360005b83811015610bdd578181015183820152602001610bc5565b50505050905090810190601f168015610c0a5780820380516001836020036101000a031916815260200191505b509250505060405180910390a150565b600354600160a060020a03163314610c3157600080fd5b600a805460ff19169055565b600354600160a060020a03163314610c5457600080fd5b8051610c679060099060208401906111eb565b507f4ac565b1ffbe935b4755372c8c6475e0f25ec688eee097ab8200f8ceb5730dca8160405180806020018281038252838181518152602001915080519060200190808383600083811015610bdd578181015183820152602001610bc5565b600354600160a060020a03163314610cdd57600080fd5b600a805460ff19166001179055565b336000908152600260209081526040808320600160a060020a0386168452909152812054610d20908363ffffffff6111d816565b336000818152600260209081526040808320600160a060020a0389168085529083529281902085905580519485525191936000805160206112c4833981519152929081900390910190a350600192915050565b600160a060020a03918216600090815260026020908152604080832093909416825291909152205490565b600354600160a060020a03163314610db557600080fd5b600160a060020a0381161515610dca57600080fd5b600354604051600160a060020a038084169216907f8be0079c531659141344cd1fd0a4f28419497f9722a3daafe3b4186f6b6457e090600090a360038054600160a060020a031916600160a060020a0392909216919091179055565b6060600060606000600585815481101515610e3d57fe5b600091825260209182902001805460408051601f6002600019610100600187161502019094169390930492830185900485028101850190915281815292830182828015610ecb5780601f10610ea057610100808354040283529160200191610ecb565b820191906000526020600020905b815481529060010190602001808311610eae57829003601f168201915b505050505091506004826040518082805190602001908083835b60208310610f045780518252601f199092019160209182019101610ee5565b51815160209384036101000a6000190180199092169116179052920194855250604051938490030190922054939793965092945050505050565b336000818152600260209081526040808320600160a060020a038716808552908352818420869055815186815291519394909390926000805160206112c4833981519152928290030190a350600192915050565b6000600160a060020a0383161515610fa957600080fd5b600160a060020a038416600090815260208190526040902054821115610fce57600080fd5b600160a060020a0384166000908152600260209081526040808320338452909152902054821115610ffe57600080fd5b600160a060020a038416600090815260208190526040902054611027908363ffffffff6110f716565b600160a060020a03808616600090815260208190526040808220939093559085168152205461105c908363ffffffff6111d816565b600160a060020a0380851660009081526020818152604080832094909455918716815260028252828120338252909152205461109e908363ffffffff6110f716565b600160a060020a03808616600081815260026020908152604080832033845282529182902094909455805186815290519287169391926000805160206112a4833981519152929181900390910190a35060019392505050565b60008282111561110357fe5b50900390565b6000600160a060020a038316151561112057600080fd5b3360009081526020819052604090205482111561113c57600080fd5b3360009081526020819052604090205461115c908363ffffffff6110f716565b3360009081526020819052604080822092909255600160a060020a0385168152205461118e908363ffffffff6111d816565b600160a060020a038416600081815260208181526040918290209390935580518581529051919233926000805160206112a48339815191529281900390910190a350600192915050565b818101828110156111e557fe5b92915050565b828054600181600116156101000203166002900490600052602060002090601f016020900481019282601f1061122c57805160ff1916838001178555611259565b82800160010185558215611259579182015b8281111561125957825182559160200191906001019061123e565b50611265929150611269565b5090565b6106b191905b80821115611265576000815560010161126f5600547261646520697320726573747269637465642e000000000000000000000000ddf252ad1be2c89b69c2b068fc378daa952ba7f163c4a11628f55a4df523b3ef8c5be1e5ebec7d5bd14f71427d1e84f3dd0314c0f7b2291e5b200ac8c7c3b925a165627a7a723058203c899671320de16122b8b4aa90204b353e87ce0e0fc15637e41a680a0d048cfa0029",
  "source": "pragma solidity ^0.4.24;\r\n\r\nimport \"openzeppelin-solidity/contracts/token/ERC20/StandardToken.sol\";\r\nimport \"./Identification.sol\";\r\n\r\ncontract CitexToken is StandardToken, Identification {\r\n\r\n    uint8 public decimals = 18;\r\n    uint256 totalSupply_ = 1000000 * 10**uint256(decimals);\r\n    string public name = \"citex\";\r\n    string public symbol = \"cix\";\r\n\r\n    event ChangeTokenName(string _name);\r\n    event ChangeTokenSymbol(string _symbol);\r\n\r\n    constructor() {\r\n        balances[owner] = totalSupply_;\r\n    }\r\n        \r\n    bool public restricted = true;\r\n    \r\n    function totalSupply() public view returns (uint256) {\r\n        return totalSupply_;\r\n    }\r\n\r\n    function changeTokenName(string _name) public onlyOwner {\r\n        name = _name;\r\n        emit ChangeTokenName(_name);\r\n    }\r\n\r\n    function changeTokenSymbol(string _symbol) public onlyOwner {\r\n        symbol = _symbol;\r\n        emit ChangeTokenSymbol(_symbol);\r\n    }\r\n\r\n    function restrictTransfer() public onlyOwner {\r\n        restricted = true;\r\n    }\r\n\r\n    function unrestrictTransfer() public onlyOwner {\r\n        restricted = false;\r\n    }\r\n\r\n    function transfer(address _to, uint256 _value) public returns (bool) {\r\n        if (restricted) {\r\n            require(_to == owner || msg.sender == owner, \"Trade is restricted.\");\r\n        }\r\n        super.transfer(_to, _value);\r\n    }\r\n    \r\n    function transferFrom(address from, address to, uint256 value) public returns (bool) {\r\n        require(restricted == false, \"Trade is restricted.\");\r\n        super.transferFrom(from, to, value);\r\n    }\r\n    \r\n    function approve(address spender, uint256 value) public returns (bool) {\r\n        require(restricted == false, \"Trade is restricted.\");\r\n        super.approve(spender, value);\r\n    }\r\n\r\n}",
  "sourcePath": "G:\\Root\\Blockchain\\areaTeck\\citexToken\\contracts\\CitexToken.sol",
  "compiler": {
    "name": "solc",
    "version": "0.4.24+commit.e67f0147.Emscripten.clang"
  },
  "schemaVersion": "2.0.1",
  "updatedAt": "2018-10-18T10:51:19.157Z"
}