{
  "contractName": "Identification",
  "abi": [
    {
      "constant": true,
      "inputs": [
        {
          "name": "",
          "type": "uint256"
        }
      ],
      "name": "emails",
      "outputs": [
        {
          "name": "",
          "type": "string"
        }
      ],
      "payable": false,
      "stateMutability": "view",
      "type": "function"
    },
    {
      "constant": true,
      "inputs": [],
      "name": "owner",
      "outputs": [
        {
          "name": "",
          "type": "address"
        }
      ],
      "payable": false,
      "stateMutability": "view",
      "type": "function"
    },
    {
      "constant": false,
      "inputs": [
        {
          "name": "newOwner",
          "type": "address"
        }
      ],
      "name": "transferOwnership",
      "outputs": [],
      "payable": false,
      "stateMutability": "nonpayable",
      "type": "function"
    },
    {
      "anonymous": false,
      "inputs": [
        {
          "indexed": false,
          "name": "_emailHash",
          "type": "string"
        },
        {
          "indexed": false,
          "name": "_balance",
          "type": "uint256"
        }
      ],
      "name": "UserUpdated",
      "type": "event"
    },
    {
      "anonymous": false,
      "inputs": [
        {
          "indexed": true,
          "name": "previousOwner",
          "type": "address"
        },
        {
          "indexed": true,
          "name": "newOwner",
          "type": "address"
        }
      ],
      "name": "OwnershipTransferred",
      "type": "event"
    },
    {
      "constant": false,
      "inputs": [
        {
          "name": "_emailHash",
          "type": "string"
        },
        {
          "name": "_balance",
          "type": "uint256"
        }
      ],
      "name": "setUserInfo",
      "outputs": [
        {
          "name": "",
          "type": "bool"
        }
      ],
      "payable": false,
      "stateMutability": "nonpayable",
      "type": "function"
    },
    {
      "constant": true,
      "inputs": [
        {
          "name": "_emailHash",
          "type": "string"
        }
      ],
      "name": "getUserInfo",
      "outputs": [
        {
          "name": "",
          "type": "uint256"
        }
      ],
      "payable": false,
      "stateMutability": "view",
      "type": "function"
    },
    {
      "constant": true,
      "inputs": [
        {
          "name": "_index",
          "type": "uint256"
        }
      ],
      "name": "getUserByIndex",
      "outputs": [
        {
          "name": "",
          "type": "string"
        },
        {
          "name": "",
          "type": "uint256"
        }
      ],
      "payable": false,
      "stateMutability": "view",
      "type": "function"
    }
  ],
  "bytecode": "0x608060405260008054600160a060020a031916331790556107a4806100256000396000f30060806040526004361061005e5763ffffffff60e060020a600035041663695a7d4981146100635780637c9b7fdd146100f05780638da5cb5b1461015b578063a7189de61461018c578063f2fde38b146101fb578063ff5d32fe1461021e575b600080fd5b34801561006f57600080fd5b5061007b6004356102b5565b6040805160208082528351818301528351919283929083019185019080838360005b838110156100b557818101518382015260200161009d565b50505050905090810190601f1680156100e25780820380516001836020036101000a031916815260200191505b509250505060405180910390f35b3480156100fc57600080fd5b506040805160206004803580820135601f810184900484028501840190955284845261014994369492936024939284019190819084018382808284375094975061035c9650505050505050565b60408051918252519081900360200190f35b34801561016757600080fd5b506101706103c4565b60408051600160a060020a039092168252519081900360200190f35b34801561019857600080fd5b506040805160206004803580820135601f81018490048402850184019095528484526101e794369492936024939284019190819084018382808284375094975050933594506103d39350505050565b604080519115158252519081900360200190f35b34801561020757600080fd5b5061021c600160a060020a036004351661053e565b005b34801561022a57600080fd5b506102366004356105c5565b6040518080602001838152602001828103825284818151815260200191508051906020019080838360005b83811015610279578181015183820152602001610261565b50505050905090810190601f1680156102a65780820380516001836020036101000a031916815260200191505b50935050505060405180910390f35b60028054829081106102c357fe5b600091825260209182902001805460408051601f60026000196101006001871615020190941693909304928301859004850281018501909152818152935090918301828280156103545780601f1061032957610100808354040283529160200191610354565b820191906000526020600020905b81548152906001019060200180831161033757829003601f168201915b505050505081565b60006001826040518082805190602001908083835b602083106103905780518252601f199092019160209182019101610371565b51815160209384036101000a6000190180199092169116179052920194855250604051938490030190922054949350505050565b600054600160a060020a031681565b60008054600160a060020a031633146103eb57600080fd5b6002805460018101808355600092909252845161042f917f405787fa12a823e0f2b7631cc41b3ba8828b3321ca811111fa75cd3aa3bb5ace019060208701906106dd565b5050816001846040518082805190602001908083835b602083106104645780518252601f199092019160209182019101610445565b51815160209384036101000a600019018019909216911617905292019485525060408051948590038201852095909555838101879052848452875194840194909452505084517fc73ed428307f6bb03acd9dd70c99a1063a78e98b9437c4d2b0391be33cdab02f928692869290918291606083019186019080838360005b838110156104fa5781810151838201526020016104e2565b50505050905090810190601f1680156105275780820380516001836020036101000a031916815260200191505b50935050505060405180910390a150600192915050565b600054600160a060020a0316331461055557600080fd5b600160a060020a038116151561056a57600080fd5b60008054604051600160a060020a03808516939216917f8be0079c531659141344cd1fd0a4f28419497f9722a3daafe3b4186f6b6457e091a360008054600160a060020a031916600160a060020a0392909216919091179055565b60606000606060006002858154811015156105dc57fe5b600091825260209182902001805460408051601f600260001961010060018716150201909416939093049283018590048502810185019091528181529283018282801561066a5780601f1061063f5761010080835404028352916020019161066a565b820191906000526020600020905b81548152906001019060200180831161064d57829003601f168201915b505050505091506001826040518082805190602001908083835b602083106106a35780518252601f199092019160209182019101610684565b51815160209384036101000a6000190180199092169116179052920194855250604051938490030190922054939793965092945050505050565b828054600181600116156101000203166002900490600052602060002090601f016020900481019282601f1061071e57805160ff191683800117855561074b565b8280016001018555821561074b579182015b8281111561074b578251825591602001919060010190610730565b5061075792915061075b565b5090565b61077591905b808211156107575760008155600101610761565b905600a165627a7a723058203c02791a316a9cd4ba17cfe26df7a5f1f3b95b3261d2d6dad17a5281f4ece1e60029",
  "source": "pragma solidity ^0.4.24;\r\n\r\nimport \"openzeppelin-solidity/contracts/ownership/Ownable.sol\";\r\n\r\ncontract Identification is Ownable {\r\n\r\n    event UserUpdated(string _emailHash, uint256 _balance);\r\n\r\n    mapping (string => uint256) userInfo;\r\n    \r\n    string[] public emails;\r\n\r\n    function setUserInfo(string _emailHash, uint256 _balance) public onlyOwner returns (bool) {\r\n        emails.push(_emailHash);\r\n        \r\n        userInfo[_emailHash] = _balance;\r\n\r\n        emit UserUpdated(_emailHash, _balance);\r\n        return true;\r\n    }\r\n\r\n    function getUserInfo(string _emailHash) public view returns (uint256) {\r\n        return userInfo[_emailHash];\r\n    }\r\n    \r\n    function getUserByIndex(uint256 _index) public view returns (string, uint256) {\r\n        string memory _emailHash = emails[_index];\r\n        uint256 _balance = userInfo[_emailHash];\r\n        return (_emailHash, _balance);\r\n    }\r\n\r\n}",
  "sourcePath": "G:\\Root\\Blockchain\\areaTeck\\citexToken\\contracts\\Identification.sol",
  "compiler": {
    "name": "solc",
    "version": "0.4.24+commit.e67f0147.Emscripten.clang"
  },
  "schemaVersion": "2.0.1",
  "updatedAt": "2018-10-18T10:46:49.453Z"
}