{
  "contractName": "Identification",
  "abi": [
    {
      "constant": false,
      "inputs": [],
      "name": "claimOwnership",
      "outputs": [],
      "payable": false,
      "stateMutability": "nonpayable",
      "type": "function"
    },
    {
      "constant": true,
      "inputs": [
        {
          "name": "",
          "type": "uint256"
        }
      ],
      "name": "emails",
      "outputs": [
        {
          "name": "",
          "type": "string"
        }
      ],
      "payable": false,
      "stateMutability": "view",
      "type": "function"
    },
    {
      "constant": true,
      "inputs": [],
      "name": "owner",
      "outputs": [
        {
          "name": "",
          "type": "address"
        }
      ],
      "payable": false,
      "stateMutability": "view",
      "type": "function"
    },
    {
      "constant": true,
      "inputs": [],
      "name": "pendingOwner",
      "outputs": [
        {
          "name": "",
          "type": "address"
        }
      ],
      "payable": false,
      "stateMutability": "view",
      "type": "function"
    },
    {
      "constant": false,
      "inputs": [
        {
          "name": "newOwner",
          "type": "address"
        }
      ],
      "name": "transferOwnership",
      "outputs": [],
      "payable": false,
      "stateMutability": "nonpayable",
      "type": "function"
    },
    {
      "anonymous": false,
      "inputs": [
        {
          "indexed": false,
          "name": "_emailHash",
          "type": "string"
        },
        {
          "indexed": false,
          "name": "_balance",
          "type": "uint256"
        }
      ],
      "name": "UserUpdated",
      "type": "event"
    },
    {
      "anonymous": false,
      "inputs": [
        {
          "indexed": true,
          "name": "previousOwner",
          "type": "address"
        },
        {
          "indexed": true,
          "name": "newOwner",
          "type": "address"
        }
      ],
      "name": "OwnershipTransferred",
      "type": "event"
    },
    {
      "constant": false,
      "inputs": [
        {
          "name": "_emailHash",
          "type": "string"
        },
        {
          "name": "_balance",
          "type": "uint256"
        }
      ],
      "name": "setUserInfo",
      "outputs": [
        {
          "name": "",
          "type": "bool"
        }
      ],
      "payable": false,
      "stateMutability": "nonpayable",
      "type": "function"
    },
    {
      "constant": true,
      "inputs": [
        {
          "name": "_emailHash",
          "type": "string"
        }
      ],
      "name": "getUserInfo",
      "outputs": [
        {
          "name": "",
          "type": "uint256"
        }
      ],
      "payable": false,
      "stateMutability": "view",
      "type": "function"
    },
    {
      "constant": true,
      "inputs": [
        {
          "name": "_index",
          "type": "uint256"
        }
      ],
      "name": "getUserByIndex",
      "outputs": [
        {
          "name": "",
          "type": "string"
        },
        {
          "name": "",
          "type": "uint256"
        }
      ],
      "payable": false,
      "stateMutability": "view",
      "type": "function"
    }
  ],
  "bytecode": "0x608060405260008054600160a060020a03191633179055610820806100256000396000f3006080604052600436106100745763ffffffff60e060020a6000350416634e71e0c88114610079578063695a7d49146100905780637c9b7fdd1461011d5780638da5cb5b14610188578063a7189de6146101b9578063e30c397814610228578063f2fde38b1461023d578063ff5d32fe1461025e575b600080fd5b34801561008557600080fd5b5061008e6102f5565b005b34801561009c57600080fd5b506100a8600435610370565b6040805160208082528351818301528351919283929083019185019080838360005b838110156100e25781810151838201526020016100ca565b50505050905090810190601f16801561010f5780820380516001836020036101000a031916815260200191505b509250505060405180910390f35b34801561012957600080fd5b506040805160206004803580820135601f81018490048402850184019095528484526101769436949293602493928401919081908401838280828437509497506104179650505050505050565b60408051918252519081900360200190f35b34801561019457600080fd5b5061019d61047f565b60408051600160a060020a039092168252519081900360200190f35b3480156101c557600080fd5b506040805160206004803580820135601f8101849004840285018401909552848452610214943694929360249392840191908190840183828082843750949750509335945061048e9350505050565b604080519115158252519081900360200190f35b34801561023457600080fd5b5061019d6105f9565b34801561024957600080fd5b5061008e600160a060020a0360043516610608565b34801561026a57600080fd5b50610276600435610641565b6040518080602001838152602001828103825284818151815260200191508051906020019080838360005b838110156102b95781810151838201526020016102a1565b50505050905090810190601f1680156102e65780820380516001836020036101000a031916815260200191505b50935050505060405180910390f35b600154600160a060020a0316331461030c57600080fd5b60015460008054604051600160a060020a0393841693909116917f8be0079c531659141344cd1fd0a4f28419497f9722a3daafe3b4186f6b6457e091a36001805460008054600160a060020a0319908116600160a060020a03841617909155169055565b600380548290811061037e57fe5b600091825260209182902001805460408051601f600260001961010060018716150201909416939093049283018590048502810185019091528181529350909183018282801561040f5780601f106103e45761010080835404028352916020019161040f565b820191906000526020600020905b8154815290600101906020018083116103f257829003601f168201915b505050505081565b60006002826040518082805190602001908083835b6020831061044b5780518252601f19909201916020918201910161042c565b51815160209384036101000a6000190180199092169116179052920194855250604051938490030190922054949350505050565b600054600160a060020a031681565b60008054600160a060020a031633146104a657600080fd5b600380546001810180835560009290925284516104ea917fc2575a0e9e593c00f959f8c92f12db2869c3395a3b0502d05e2516446f71f85b01906020870190610759565b5050816002846040518082805190602001908083835b6020831061051f5780518252601f199092019160209182019101610500565b51815160209384036101000a600019018019909216911617905292019485525060408051948590038201852095909555838101879052848452875194840194909452505084517fc73ed428307f6bb03acd9dd70c99a1063a78e98b9437c4d2b0391be33cdab02f928692869290918291606083019186019080838360005b838110156105b557818101518382015260200161059d565b50505050905090810190601f1680156105e25780820380516001836020036101000a031916815260200191505b50935050505060405180910390a150600192915050565b600154600160a060020a031681565b600054600160a060020a0316331461061f57600080fd5b60018054600160a060020a031916600160a060020a0392909216919091179055565b606060006060600060038581548110151561065857fe5b600091825260209182902001805460408051601f60026000196101006001871615020190941693909304928301859004850281018501909152818152928301828280156106e65780601f106106bb576101008083540402835291602001916106e6565b820191906000526020600020905b8154815290600101906020018083116106c957829003601f168201915b505050505091506002826040518082805190602001908083835b6020831061071f5780518252601f199092019160209182019101610700565b51815160209384036101000a6000190180199092169116179052920194855250604051938490030190922054939793965092945050505050565b828054600181600116156101000203166002900490600052602060002090601f016020900481019282601f1061079a57805160ff19168380011785556107c7565b828001600101855582156107c7579182015b828111156107c75782518255916020019190600101906107ac565b506107d39291506107d7565b5090565b6107f191905b808211156107d357600081556001016107dd565b905600a165627a7a723058209a18c33ce8e3ef9f785cab4c9cc2be7892196b7cef199e973affd76676a7c7f20029",
  "source": "pragma solidity ^0.4.24;\r\n\r\nimport \"openzeppelin-solidity/contracts/ownership/Claimable.sol\";\r\n\r\ncontract Identification is Claimable {\r\n\r\n    event UserUpdated(string _emailHash, uint256 _balance);\r\n\r\n    mapping (string => uint256) userInfo;\r\n    \r\n    string[] public emails;\r\n\r\n    function setUserInfo(string _emailHash, uint256 _balance) public onlyOwner returns (bool) {\r\n        emails.push(_emailHash);\r\n        \r\n        userInfo[_emailHash] = _balance;\r\n\r\n        emit UserUpdated(_emailHash, _balance);\r\n        return true;\r\n    }\r\n\r\n    function getUserInfo(string _emailHash) public view returns (uint256) {\r\n        return userInfo[_emailHash];\r\n    }\r\n    \r\n    function getUserByIndex(uint256 _index) public view returns (string, uint256) {\r\n        string memory _emailHash = emails[_index];\r\n        uint256 _balance = userInfo[_emailHash];\r\n        return (_emailHash, _balance);\r\n    }\r\n\r\n}",
  "sourcePath": "G:\\Root\\Blockchain\\areaTeck\\citexToken\\contracts\\Identification.sol",
  "compiler": {
    "name": "solc",
    "version": "0.4.24+commit.e67f0147.Emscripten.clang"
  },
  "schemaVersion": "2.0.1",
  "updatedAt": "2018-10-03T12:35:18.415Z"
}